{
  "_format": "hh-sol-artifact-1",
  "contractName": "PlatwinMEME",
  "sourceName": "contracts/nft/PlatwinMEME.sol",
  "abi": [
    {
      "inputs": [
        {
          "internalType": "contract IRPCRouter",
          "name": "router",
          "type": "address"
        },
        {
          "internalType": "string",
          "name": "uri",
          "type": "string"
        }
      ],
      "stateMutability": "nonpayable",
      "type": "constructor"
    },
    {
      "anonymous": false,
      "inputs": [
        {
          "indexed": true,
          "internalType": "address",
          "name": "owner",
          "type": "address"
        },
        {
          "indexed": true,
          "internalType": "address",
          "name": "approved",
          "type": "address"
        },
        {
          "indexed": true,
          "internalType": "uint256",
          "name": "tokenId",
          "type": "uint256"
        }
      ],
      "name": "Approval",
      "type": "event"
    },
    {
      "anonymous": false,
      "inputs": [
        {
          "indexed": true,
          "internalType": "address",
          "name": "owner",
          "type": "address"
        },
        {
          "indexed": true,
          "internalType": "address",
          "name": "operator",
          "type": "address"
        },
        {
          "indexed": false,
          "internalType": "bool",
          "name": "approved",
          "type": "bool"
        }
      ],
      "name": "ApprovalForAll",
      "type": "event"
    },
    {
      "anonymous": false,
      "inputs": [
        {
          "indexed": false,
          "internalType": "string",
          "name": "oldURI",
          "type": "string"
        },
        {
          "indexed": false,
          "internalType": "string",
          "name": "newURI",
          "type": "string"
        }
      ],
      "name": "BaseURIUpdated",
      "type": "event"
    },
    {
      "anonymous": false,
      "inputs": [
        {
          "indexed": false,
          "internalType": "bool",
          "name": "paused",
          "type": "bool"
        }
      ],
      "name": "MintPaused",
      "type": "event"
    },
    {
      "anonymous": false,
      "inputs": [
        {
          "indexed": true,
          "internalType": "address",
          "name": "previousOwner",
          "type": "address"
        },
        {
          "indexed": true,
          "internalType": "address",
          "name": "newOwner",
          "type": "address"
        }
      ],
      "name": "OwnershipTransferred",
      "type": "event"
    },
    {
      "anonymous": false,
      "inputs": [
        {
          "indexed": true,
          "internalType": "address",
          "name": "from",
          "type": "address"
        },
        {
          "indexed": true,
          "internalType": "address",
          "name": "to",
          "type": "address"
        },
        {
          "indexed": true,
          "internalType": "uint256",
          "name": "tokenId",
          "type": "uint256"
        }
      ],
      "name": "Transfer",
      "type": "event"
    },
    {
      "inputs": [
        {
          "internalType": "address",
          "name": "to",
          "type": "address"
        },
        {
          "internalType": "uint256",
          "name": "tokenId",
          "type": "uint256"
        }
      ],
      "name": "approve",
      "outputs": [],
      "stateMutability": "nonpayable",
      "type": "function"
    },
    {
      "inputs": [
        {
          "internalType": "address",
          "name": "owner",
          "type": "address"
        }
      ],
      "name": "balanceOf",
      "outputs": [
        {
          "internalType": "uint256",
          "name": "",
          "type": "uint256"
        }
      ],
      "stateMutability": "view",
      "type": "function"
    },
    {
      "inputs": [],
      "name": "baseURI",
      "outputs": [
        {
          "internalType": "string",
          "name": "",
          "type": "string"
        }
      ],
      "stateMutability": "view",
      "type": "function"
    },
    {
      "inputs": [
        {
          "internalType": "uint256",
          "name": "tokenId",
          "type": "uint256"
        }
      ],
      "name": "getApproved",
      "outputs": [
        {
          "internalType": "address",
          "name": "",
          "type": "address"
        }
      ],
      "stateMutability": "view",
      "type": "function"
    },
    {
      "inputs": [
        {
          "internalType": "address",
          "name": "owner",
          "type": "address"
        },
        {
          "internalType": "address",
          "name": "operator",
          "type": "address"
        }
      ],
      "name": "isApprovedForAll",
      "outputs": [
        {
          "internalType": "bool",
          "name": "",
          "type": "bool"
        }
      ],
      "stateMutability": "view",
      "type": "function"
    },
    {
      "inputs": [
        {
          "internalType": "address",
          "name": "to",
          "type": "address"
        }
      ],
      "name": "mint",
      "outputs": [],
      "stateMutability": "nonpayable",
      "type": "function"
    },
    {
      "inputs": [],
      "name": "mintPaused",
      "outputs": [
        {
          "internalType": "bool",
          "name": "",
          "type": "bool"
        }
      ],
      "stateMutability": "view",
      "type": "function"
    },
    {
      "inputs": [],
      "name": "name",
      "outputs": [
        {
          "internalType": "string",
          "name": "",
          "type": "string"
        }
      ],
      "stateMutability": "view",
      "type": "function"
    },
    {
      "inputs": [],
      "name": "owner",
      "outputs": [
        {
          "internalType": "address",
          "name": "",
          "type": "address"
        }
      ],
      "stateMutability": "view",
      "type": "function"
    },
    {
      "inputs": [
        {
          "internalType": "uint256",
          "name": "tokenId",
          "type": "uint256"
        }
      ],
      "name": "ownerOf",
      "outputs": [
        {
          "internalType": "address",
          "name": "",
          "type": "address"
        }
      ],
      "stateMutability": "view",
      "type": "function"
    },
    {
      "inputs": [
        {
          "internalType": "bool",
          "name": "paused",
          "type": "bool"
        }
      ],
      "name": "pauseMint",
      "outputs": [],
      "stateMutability": "nonpayable",
      "type": "function"
    },
    {
      "inputs": [],
      "name": "renounceOwnership",
      "outputs": [],
      "stateMutability": "nonpayable",
      "type": "function"
    },
    {
      "inputs": [],
      "name": "rpcRouter",
      "outputs": [
        {
          "internalType": "contract IRPCRouter",
          "name": "",
          "type": "address"
        }
      ],
      "stateMutability": "view",
      "type": "function"
    },
    {
      "inputs": [
        {
          "internalType": "address",
          "name": "to",
          "type": "address"
        }
      ],
      "name": "safeMint",
      "outputs": [],
      "stateMutability": "nonpayable",
      "type": "function"
    },
    {
      "inputs": [
        {
          "internalType": "address",
          "name": "from",
          "type": "address"
        },
        {
          "internalType": "address",
          "name": "to",
          "type": "address"
        },
        {
          "internalType": "uint256",
          "name": "tokenId",
          "type": "uint256"
        }
      ],
      "name": "safeTransferFrom",
      "outputs": [],
      "stateMutability": "nonpayable",
      "type": "function"
    },
    {
      "inputs": [
        {
          "internalType": "address",
          "name": "from",
          "type": "address"
        },
        {
          "internalType": "address",
          "name": "to",
          "type": "address"
        },
        {
          "internalType": "uint256",
          "name": "tokenId",
          "type": "uint256"
        },
        {
          "internalType": "bytes",
          "name": "_data",
          "type": "bytes"
        }
      ],
      "name": "safeTransferFrom",
      "outputs": [],
      "stateMutability": "nonpayable",
      "type": "function"
    },
    {
      "inputs": [
        {
          "internalType": "address",
          "name": "operator",
          "type": "address"
        },
        {
          "internalType": "bool",
          "name": "approved",
          "type": "bool"
        }
      ],
      "name": "setApprovalForAll",
      "outputs": [],
      "stateMutability": "nonpayable",
      "type": "function"
    },
    {
      "inputs": [
        {
          "internalType": "string",
          "name": "newBaseURI",
          "type": "string"
        }
      ],
      "name": "setBaseURI",
      "outputs": [],
      "stateMutability": "nonpayable",
      "type": "function"
    },
    {
      "inputs": [
        {
          "internalType": "bytes4",
          "name": "interfaceId",
          "type": "bytes4"
        }
      ],
      "name": "supportsInterface",
      "outputs": [
        {
          "internalType": "bool",
          "name": "",
          "type": "bool"
        }
      ],
      "stateMutability": "view",
      "type": "function"
    },
    {
      "inputs": [],
      "name": "symbol",
      "outputs": [
        {
          "internalType": "string",
          "name": "",
          "type": "string"
        }
      ],
      "stateMutability": "view",
      "type": "function"
    },
    {
      "inputs": [],
      "name": "tokenIndex",
      "outputs": [
        {
          "internalType": "uint256",
          "name": "",
          "type": "uint256"
        }
      ],
      "stateMutability": "view",
      "type": "function"
    },
    {
      "inputs": [
        {
          "internalType": "uint256",
          "name": "tokenId",
          "type": "uint256"
        }
      ],
      "name": "tokenURI",
      "outputs": [
        {
          "internalType": "string",
          "name": "",
          "type": "string"
        }
      ],
      "stateMutability": "view",
      "type": "function"
    },
    {
      "inputs": [
        {
          "internalType": "address",
          "name": "from",
          "type": "address"
        },
        {
          "internalType": "address",
          "name": "to",
          "type": "address"
        },
        {
          "internalType": "uint256",
          "name": "tokenId",
          "type": "uint256"
        }
      ],
      "name": "transferFrom",
      "outputs": [],
      "stateMutability": "nonpayable",
      "type": "function"
    },
    {
      "inputs": [
        {
          "internalType": "address",
          "name": "newOwner",
          "type": "address"
        }
      ],
      "name": "transferOwnership",
      "outputs": [],
      "stateMutability": "nonpayable",
      "type": "function"
    }
  ],
  "bytecode": "0x60806040523480156200001157600080fd5b5060405162002929380380620029298339810160408190526200003491620001f2565b6040518060400160405280600c81526020016b506c617477696e204d454d4560a01b8152506040518060400160405280600c81526020016b504c415457494e2d4d454d4560a01b8152508160009080519060200190620000969291906200014c565b508051620000ac9060019060208401906200014c565b5050506000620000c16200014860201b60201c565b600680546001600160a01b0319166001600160a01b038316908117909155604051919250906000907f8be0079c531659141344cd1fd0a4f28419497f9722a3daafe3b4186f6b6457e0908290a350600780546001600160a01b0319166001600160a01b03841617905580516200013f9060099060208401906200014c565b5050506200033e565b3390565b8280546200015a90620002eb565b90600052602060002090601f0160209004810192826200017e5760008555620001c9565b82601f106200019957805160ff1916838001178555620001c9565b82800160010185558215620001c9579182015b82811115620001c9578251825591602001919060010190620001ac565b50620001d7929150620001db565b5090565b5b80821115620001d75760008155600101620001dc565b6000806040838503121562000205578182fd5b82516001600160a01b03811681146200021c578283fd5b602084810151919350906001600160401b03808211156200023b578384fd5b818601915086601f8301126200024f578384fd5b81518181111562000264576200026462000328565b604051601f8201601f19908116603f011681019083821181831017156200028f576200028f62000328565b816040528281528986848701011115620002a7578687fd5b8693505b82841015620002ca5784840186015181850187015292850192620002ab565b82841115620002db57868684830101525b8096505050505050509250929050565b600181811c908216806200030057607f821691505b602082108114156200032257634e487b7160e01b600052602260045260246000fd5b50919050565b634e487b7160e01b600052604160045260246000fd5b6125db806200034e6000396000f3fe608060405234801561001057600080fd5b50600436106101985760003560e01c806370a08231116100e3578063b88d4fde1161008c578063e985e9c511610066578063e985e9c51461035f578063f2fde38b146103a8578063f30e6e77146103bb57600080fd5b8063b88d4fde14610330578063c87b56dd14610343578063d55f92731461035657600080fd5b80638da5cb5b116100bd5780638da5cb5b146102f757806395d89b4114610315578063a22cb4651461031d57600080fd5b806370a08231146102c1578063715018a6146102e25780637e4831d3146102ea57600080fd5b806340d097c3116101455780636352211e1161011f5780636352211e146102935780636a627842146102a65780636c0360eb146102b957600080fd5b806340d097c31461025a57806342842e0e1461026d57806355f804b31461028057600080fd5b8063095ea7b311610176578063095ea7b31461021257806315ceb8621461022757806323b872dd1461024757600080fd5b806301ffc9a71461019d57806306fdde03146101c5578063081812fc146101da575b600080fd5b6101b06101ab366004612226565b6103ce565b60405190151581526020015b60405180910390f35b6101cd6104b3565b6040516101bc9190612396565b6101ed6101e83660046122a4565b610545565b60405173ffffffffffffffffffffffffffffffffffffffff90911681526020016101bc565b6102256102203660046121e3565b610624565b005b6007546101ed9073ffffffffffffffffffffffffffffffffffffffff1681565b610225610255366004612106565b6107b1565b6102256102683660046120ba565b610852565b61022561027b366004612106565b61091a565b61022561028e36600461225e565b610935565b6101ed6102a13660046122a4565b610a98565b6102256102b43660046120ba565b610b4a565b6101cd610c67565b6102d46102cf3660046120ba565b610cf5565b6040519081526020016101bc565b610225610dc3565b600a546101b09060ff1681565b60065473ffffffffffffffffffffffffffffffffffffffff166101ed565b6101cd610eb3565b61022561032b3660046121ba565b610ec2565b61022561033e366004612141565b610fd9565b6101cd6103513660046122a4565b611081565b6102d460085481565b6101b061036d3660046120d4565b73ffffffffffffffffffffffffffffffffffffffff918216600090815260056020908152604080832093909416825291909152205460ff1690565b6102256103b63660046120ba565b611191565b6102256103c936600461220c565b611343565b60007fffffffff0000000000000000000000000000000000000000000000000000000082167f80ac58cd00000000000000000000000000000000000000000000000000000000148061046157507fffffffff0000000000000000000000000000000000000000000000000000000082167f5b5e139f00000000000000000000000000000000000000000000000000000000145b806104ad57507f01ffc9a7000000000000000000000000000000000000000000000000000000007fffffffff000000000000000000000000000000000000000000000000000000008316145b92915050565b6060600080546104c290612446565b80601f01602080910402602001604051908101604052809291908181526020018280546104ee90612446565b801561053b5780601f106105105761010080835404028352916020019161053b565b820191906000526020600020905b81548152906001019060200180831161051e57829003601f168201915b5050505050905090565b60008181526002602052604081205473ffffffffffffffffffffffffffffffffffffffff166105fb576040517f08c379a000000000000000000000000000000000000000000000000000000000815260206004820152602c60248201527f4552433732313a20617070726f76656420717565727920666f72206e6f6e657860448201527f697374656e7420746f6b656e000000000000000000000000000000000000000060648201526084015b60405180910390fd5b5060009081526004602052604090205473ffffffffffffffffffffffffffffffffffffffff1690565b600061062f82610a98565b90508073ffffffffffffffffffffffffffffffffffffffff168373ffffffffffffffffffffffffffffffffffffffff1614156106ed576040517f08c379a000000000000000000000000000000000000000000000000000000000815260206004820152602160248201527f4552433732313a20617070726f76616c20746f2063757272656e74206f776e6560448201527f720000000000000000000000000000000000000000000000000000000000000060648201526084016105f2565b3373ffffffffffffffffffffffffffffffffffffffff821614806107165750610716813361036d565b6107a2576040517f08c379a000000000000000000000000000000000000000000000000000000000815260206004820152603860248201527f4552433732313a20617070726f76652063616c6c6572206973206e6f74206f7760448201527f6e6572206e6f7220617070726f76656420666f7220616c6c000000000000000060648201526084016105f2565b6107ac8383611429565b505050565b6107bb33826114c9565b610847576040517f08c379a000000000000000000000000000000000000000000000000000000000815260206004820152603160248201527f4552433732313a207472616e736665722063616c6c6572206973206e6f74206f60448201527f776e6572206e6f7220617070726f76656400000000000000000000000000000060648201526084016105f2565b6107ac838383611639565b6007546040517f314d507400000000000000000000000000000000000000000000000000000000815233600482015273ffffffffffffffffffffffffffffffffffffffff9091169063314d507490602401602060405180830381600087803b1580156108bd57600080fd5b505af11580156108d1573d6000803e3d6000fd5b505050506040513d601f19601f820116820180604052508101906108f591906122bc565b50610902816008546118a0565b600880549060006109128361249a565b919050555050565b6107ac83838360405180602001604052806000815250610fd9565b60065473ffffffffffffffffffffffffffffffffffffffff1633146109b6576040517f08c379a000000000000000000000000000000000000000000000000000000000815260206004820181905260248201527f4f776e61626c653a2063616c6c6572206973206e6f7420746865206f776e657260448201526064016105f2565b6000600980546109c590612446565b80601f01602080910402602001604051908101604052809291908181526020018280546109f190612446565b8015610a3e5780601f10610a1357610100808354040283529160200191610a3e565b820191906000526020600020905b815481529060010190602001808311610a2157829003601f168201915b50508551939450610a5a93600993506020870192509050611f54565b507f309b29ded109b9e28fb9885757b3e0096eb75c51d23aa4635d68bcd569f6adc18183604051610a8c9291906123a9565b60405180910390a15050565b60008181526002602052604081205473ffffffffffffffffffffffffffffffffffffffff16806104ad576040517f08c379a000000000000000000000000000000000000000000000000000000000815260206004820152602960248201527f4552433732313a206f776e657220717565727920666f72206e6f6e657869737460448201527f656e7420746f6b656e000000000000000000000000000000000000000000000060648201526084016105f2565b600a5460ff1615610bb7576040517f08c379a000000000000000000000000000000000000000000000000000000000815260206004820152600b60248201527f6d696e742070617573656400000000000000000000000000000000000000000060448201526064016105f2565b6007546040517f314d507400000000000000000000000000000000000000000000000000000000815233600482015273ffffffffffffffffffffffffffffffffffffffff9091169063314d507490602401602060405180830381600087803b158015610c2257600080fd5b505af1158015610c36573d6000803e3d6000fd5b505050506040513d601f19601f82011682018060405250810190610c5a91906122bc565b50610902816008546118be565b60098054610c7490612446565b80601f0160208091040260200160405190810160405280929190818152602001828054610ca090612446565b8015610ced5780601f10610cc257610100808354040283529160200191610ced565b820191906000526020600020905b815481529060010190602001808311610cd057829003601f168201915b505050505081565b600073ffffffffffffffffffffffffffffffffffffffff8216610d9a576040517f08c379a000000000000000000000000000000000000000000000000000000000815260206004820152602a60248201527f4552433732313a2062616c616e636520717565727920666f7220746865207a6560448201527f726f20616464726573730000000000000000000000000000000000000000000060648201526084016105f2565b5073ffffffffffffffffffffffffffffffffffffffff1660009081526003602052604090205490565b60065473ffffffffffffffffffffffffffffffffffffffff163314610e44576040517f08c379a000000000000000000000000000000000000000000000000000000000815260206004820181905260248201527f4f776e61626c653a2063616c6c6572206973206e6f7420746865206f776e657260448201526064016105f2565b60065460405160009173ffffffffffffffffffffffffffffffffffffffff16907f8be0079c531659141344cd1fd0a4f28419497f9722a3daafe3b4186f6b6457e0908390a3600680547fffffffffffffffffffffffff0000000000000000000000000000000000000000169055565b6060600180546104c290612446565b73ffffffffffffffffffffffffffffffffffffffff8216331415610f42576040517f08c379a000000000000000000000000000000000000000000000000000000000815260206004820152601960248201527f4552433732313a20617070726f766520746f2063616c6c65720000000000000060448201526064016105f2565b33600081815260056020908152604080832073ffffffffffffffffffffffffffffffffffffffff87168085529083529281902080547fffffffffffffffffffffffffffffffffffffffffffffffffffffffffffffff001686151590811790915590519081529192917f17307eab39ab6107e8899845ad3d59bd9653f200f220920489ca2b5937696c31910160405180910390a35050565b610fe333836114c9565b61106f576040517f08c379a000000000000000000000000000000000000000000000000000000000815260206004820152603160248201527f4552433732313a207472616e736665722063616c6c6572206973206e6f74206f60448201527f776e6572206e6f7220617070726f76656400000000000000000000000000000060648201526084016105f2565b61107b84848484611a80565b50505050565b60008181526002602052604090205460609073ffffffffffffffffffffffffffffffffffffffff16611135576040517f08c379a000000000000000000000000000000000000000000000000000000000815260206004820152602f60248201527f4552433732314d657461646174613a2055524920717565727920666f72206e6f60448201527f6e6578697374656e7420746f6b656e000000000000000000000000000000000060648201526084016105f2565b600061113f611b23565b9050600081511161115f576040518060200160405280600081525061118a565b8061116984611b32565b60405160200161117a92919061231e565b6040516020818303038152906040525b9392505050565b60065473ffffffffffffffffffffffffffffffffffffffff163314611212576040517f08c379a000000000000000000000000000000000000000000000000000000000815260206004820181905260248201527f4f776e61626c653a2063616c6c6572206973206e6f7420746865206f776e657260448201526064016105f2565b73ffffffffffffffffffffffffffffffffffffffff81166112b5576040517f08c379a000000000000000000000000000000000000000000000000000000000815260206004820152602660248201527f4f776e61626c653a206e6577206f776e657220697320746865207a65726f206160448201527f646472657373000000000000000000000000000000000000000000000000000060648201526084016105f2565b60065460405173ffffffffffffffffffffffffffffffffffffffff8084169216907f8be0079c531659141344cd1fd0a4f28419497f9722a3daafe3b4186f6b6457e090600090a3600680547fffffffffffffffffffffffff00000000000000000000000000000000000000001673ffffffffffffffffffffffffffffffffffffffff92909216919091179055565b60065473ffffffffffffffffffffffffffffffffffffffff1633146113c4576040517f08c379a000000000000000000000000000000000000000000000000000000000815260206004820181905260248201527f4f776e61626c653a2063616c6c6572206973206e6f7420746865206f776e657260448201526064016105f2565b600a80547fffffffffffffffffffffffffffffffffffffffffffffffffffffffffffffff00168215159081179091556040519081527f6c5077b147ba33efb2320134a1363ca18ccbacd3e2eb73438a3d23b2d7b180ba9060200160405180910390a150565b600081815260046020526040902080547fffffffffffffffffffffffff00000000000000000000000000000000000000001673ffffffffffffffffffffffffffffffffffffffff8416908117909155819061148382610a98565b73ffffffffffffffffffffffffffffffffffffffff167f8c5be1e5ebec7d5bd14f71427d1e84f3dd0314c0f7b2291e5b200ac8c7c3b92560405160405180910390a45050565b60008181526002602052604081205473ffffffffffffffffffffffffffffffffffffffff1661157a576040517f08c379a000000000000000000000000000000000000000000000000000000000815260206004820152602c60248201527f4552433732313a206f70657261746f7220717565727920666f72206e6f6e657860448201527f697374656e7420746f6b656e000000000000000000000000000000000000000060648201526084016105f2565b600061158583610a98565b90508073ffffffffffffffffffffffffffffffffffffffff168473ffffffffffffffffffffffffffffffffffffffff1614806115f457508373ffffffffffffffffffffffffffffffffffffffff166115dc84610545565b73ffffffffffffffffffffffffffffffffffffffff16145b80611631575073ffffffffffffffffffffffffffffffffffffffff80821660009081526005602090815260408083209388168352929052205460ff165b949350505050565b8273ffffffffffffffffffffffffffffffffffffffff1661165982610a98565b73ffffffffffffffffffffffffffffffffffffffff16146116fc576040517f08c379a000000000000000000000000000000000000000000000000000000000815260206004820152602960248201527f4552433732313a207472616e73666572206f6620746f6b656e2074686174206960448201527f73206e6f74206f776e000000000000000000000000000000000000000000000060648201526084016105f2565b73ffffffffffffffffffffffffffffffffffffffff821661179e576040517f08c379a0000000000000000000000000000000000000000000000000000000008152602060048201526024808201527f4552433732313a207472616e7366657220746f20746865207a65726f2061646460448201527f726573730000000000000000000000000000000000000000000000000000000060648201526084016105f2565b6117a9600082611429565b73ffffffffffffffffffffffffffffffffffffffff831660009081526003602052604081208054600192906117df908490612403565b909155505073ffffffffffffffffffffffffffffffffffffffff8216600090815260036020526040812080546001929061181a9084906123d7565b909155505060008181526002602052604080822080547fffffffffffffffffffffffff00000000000000000000000000000000000000001673ffffffffffffffffffffffffffffffffffffffff86811691821790925591518493918716917fddf252ad1be2c89b69c2b068fc378daa952ba7f163c4a11628f55a4df523b3ef91a4505050565b6118ba828260405180602001604052806000815250611cb2565b5050565b73ffffffffffffffffffffffffffffffffffffffff821661193b576040517f08c379a000000000000000000000000000000000000000000000000000000000815260206004820181905260248201527f4552433732313a206d696e7420746f20746865207a65726f206164647265737360448201526064016105f2565b60008181526002602052604090205473ffffffffffffffffffffffffffffffffffffffff16156119c7576040517f08c379a000000000000000000000000000000000000000000000000000000000815260206004820152601c60248201527f4552433732313a20746f6b656e20616c7265616479206d696e7465640000000060448201526064016105f2565b73ffffffffffffffffffffffffffffffffffffffff821660009081526003602052604081208054600192906119fd9084906123d7565b909155505060008181526002602052604080822080547fffffffffffffffffffffffff00000000000000000000000000000000000000001673ffffffffffffffffffffffffffffffffffffffff861690811790915590518392907fddf252ad1be2c89b69c2b068fc378daa952ba7f163c4a11628f55a4df523b3ef908290a45050565b611a8b848484611639565b611a9784848484611d55565b61107b576040517f08c379a000000000000000000000000000000000000000000000000000000000815260206004820152603260248201527f4552433732313a207472616e7366657220746f206e6f6e20455243373231526560448201527f63656976657220696d706c656d656e746572000000000000000000000000000060648201526084016105f2565b6060600980546104c290612446565b606081611b7257505060408051808201909152600181527f3000000000000000000000000000000000000000000000000000000000000000602082015290565b8160005b8115611b9c5780611b868161249a565b9150611b959050600a836123ef565b9150611b76565b60008167ffffffffffffffff811115611bde577f4e487b7100000000000000000000000000000000000000000000000000000000600052604160045260246000fd5b6040519080825280601f01601f191660200182016040528015611c08576020820181803683370190505b5090505b841561163157611c1d600183612403565b9150611c2a600a866124d3565b611c359060306123d7565b60f81b818381518110611c71577f4e487b7100000000000000000000000000000000000000000000000000000000600052603260045260246000fd5b60200101907effffffffffffffffffffffffffffffffffffffffffffffffffffffffffffff1916908160001a905350611cab600a866123ef565b9450611c0c565b611cbc83836118be565b611cc96000848484611d55565b6107ac576040517f08c379a000000000000000000000000000000000000000000000000000000000815260206004820152603260248201527f4552433732313a207472616e7366657220746f206e6f6e20455243373231526560448201527f63656976657220696d706c656d656e746572000000000000000000000000000060648201526084016105f2565b600073ffffffffffffffffffffffffffffffffffffffff84163b15611f49576040517f150b7a0200000000000000000000000000000000000000000000000000000000815273ffffffffffffffffffffffffffffffffffffffff85169063150b7a0290611dcc90339089908890889060040161234d565b602060405180830381600087803b158015611de657600080fd5b505af1925050508015611e34575060408051601f3d9081017fffffffffffffffffffffffffffffffffffffffffffffffffffffffffffffffe0168201909252611e3191810190612242565b60015b611efe573d808015611e62576040519150601f19603f3d011682016040523d82523d6000602084013e611e67565b606091505b508051611ef6576040517f08c379a000000000000000000000000000000000000000000000000000000000815260206004820152603260248201527f4552433732313a207472616e7366657220746f206e6f6e20455243373231526560448201527f63656976657220696d706c656d656e746572000000000000000000000000000060648201526084016105f2565b805181602001fd5b7fffffffff00000000000000000000000000000000000000000000000000000000167f150b7a0200000000000000000000000000000000000000000000000000000000149050611631565b506001949350505050565b828054611f6090612446565b90600052602060002090601f016020900481019282611f825760008555611fc8565b82601f10611f9b57805160ff1916838001178555611fc8565b82800160010185558215611fc8579182015b82811115611fc8578251825591602001919060010190611fad565b50611fd4929150611fd8565b5090565b5b80821115611fd45760008155600101611fd9565b600067ffffffffffffffff8084111561200857612008612545565b604051601f85017fffffffffffffffffffffffffffffffffffffffffffffffffffffffffffffffe0908116603f0116810190828211818310171561204e5761204e612545565b8160405280935085815286868601111561206757600080fd5b858560208301376000602087830101525050509392505050565b803573ffffffffffffffffffffffffffffffffffffffff811681146120a557600080fd5b919050565b803580151581146120a557600080fd5b6000602082840312156120cb578081fd5b61118a82612081565b600080604083850312156120e6578081fd5b6120ef83612081565b91506120fd60208401612081565b90509250929050565b60008060006060848603121561211a578081fd5b61212384612081565b925061213160208501612081565b9150604084013590509250925092565b60008060008060808587031215612156578081fd5b61215f85612081565b935061216d60208601612081565b925060408501359150606085013567ffffffffffffffff81111561218f578182fd5b8501601f8101871361219f578182fd5b6121ae87823560208401611fed565b91505092959194509250565b600080604083850312156121cc578182fd5b6121d583612081565b91506120fd602084016120aa565b600080604083850312156121f5578182fd5b6121fe83612081565b946020939093013593505050565b60006020828403121561221d578081fd5b61118a826120aa565b600060208284031215612237578081fd5b813561118a81612574565b600060208284031215612253578081fd5b815161118a81612574565b60006020828403121561226f578081fd5b813567ffffffffffffffff811115612285578182fd5b8201601f81018413612295578182fd5b61163184823560208401611fed565b6000602082840312156122b5578081fd5b5035919050565b6000602082840312156122cd578081fd5b5051919050565b600081518084526122ec81602086016020860161241a565b601f017fffffffffffffffffffffffffffffffffffffffffffffffffffffffffffffffe0169290920160200192915050565b6000835161233081846020880161241a565b83519083019061234481836020880161241a565b01949350505050565b600073ffffffffffffffffffffffffffffffffffffffff80871683528086166020840152508360408301526080606083015261238c60808301846122d4565b9695505050505050565b60208152600061118a60208301846122d4565b6040815260006123bc60408301856122d4565b82810360208401526123ce81856122d4565b95945050505050565b600082198211156123ea576123ea6124e7565b500190565b6000826123fe576123fe612516565b500490565b600082821015612415576124156124e7565b500390565b60005b8381101561243557818101518382015260200161241d565b8381111561107b5750506000910152565b600181811c9082168061245a57607f821691505b60208210811415612494577f4e487b7100000000000000000000000000000000000000000000000000000000600052602260045260246000fd5b50919050565b60007fffffffffffffffffffffffffffffffffffffffffffffffffffffffffffffffff8214156124cc576124cc6124e7565b5060010190565b6000826124e2576124e2612516565b500690565b7f4e487b7100000000000000000000000000000000000000000000000000000000600052601160045260246000fd5b7f4e487b7100000000000000000000000000000000000000000000000000000000600052601260045260246000fd5b7f4e487b7100000000000000000000000000000000000000000000000000000000600052604160045260246000fd5b7fffffffff00000000000000000000000000000000000000000000000000000000811681146125a257600080fd5b5056fea2646970667358221220b8be9415360395d5c725da1c1fcbe794eca329c16e670d2a048c754b1b56eacf64736f6c63430008040033",
  "linkReferences": {},
  "deployedLinkReferences": {}
}